{
  "_format": "hh-sol-artifact-1",
  "contractName": "LegendNFT",
  "sourceName": "contracts/LegendNFT.sol",
  "abi": [
    {
      "inputs": [],
      "stateMutability": "nonpayable",
      "type": "constructor"
    },
    {
      "anonymous": false,
      "inputs": [
        {
          "indexed": true,
          "internalType": "address",
          "name": "owner",
          "type": "address"
        },
        {
          "indexed": true,
          "internalType": "address",
          "name": "approved",
          "type": "address"
        },
        {
          "indexed": true,
          "internalType": "uint256",
          "name": "tokenId",
          "type": "uint256"
        }
      ],
      "name": "Approval",
      "type": "event"
    },
    {
      "anonymous": false,
      "inputs": [
        {
          "indexed": true,
          "internalType": "address",
          "name": "owner",
          "type": "address"
        },
        {
          "indexed": true,
          "internalType": "address",
          "name": "operator",
          "type": "address"
        },
        {
          "indexed": false,
          "internalType": "bool",
          "name": "approved",
          "type": "bool"
        }
      ],
      "name": "ApprovalForAll",
      "type": "event"
    },
    {
      "anonymous": false,
      "inputs": [
        {
          "indexed": false,
          "internalType": "address",
          "name": "sender",
          "type": "address"
        },
        {
          "indexed": false,
          "internalType": "uint256",
          "name": "tokenId",
          "type": "uint256"
        }
      ],
      "name": "NewLegendNFTMinted",
      "type": "event"
    },
    {
      "anonymous": false,
      "inputs": [
        {
          "indexed": true,
          "internalType": "address",
          "name": "from",
          "type": "address"
        },
        {
          "indexed": true,
          "internalType": "address",
          "name": "to",
          "type": "address"
        },
        {
          "indexed": true,
          "internalType": "uint256",
          "name": "tokenId",
          "type": "uint256"
        }
      ],
      "name": "Transfer",
      "type": "event"
    },
    {
      "inputs": [
        {
          "internalType": "address",
          "name": "to",
          "type": "address"
        },
        {
          "internalType": "uint256",
          "name": "tokenId",
          "type": "uint256"
        }
      ],
      "name": "approve",
      "outputs": [],
      "stateMutability": "nonpayable",
      "type": "function"
    },
    {
      "inputs": [
        {
          "internalType": "address",
          "name": "owner",
          "type": "address"
        }
      ],
      "name": "balanceOf",
      "outputs": [
        {
          "internalType": "uint256",
          "name": "",
          "type": "uint256"
        }
      ],
      "stateMutability": "view",
      "type": "function"
    },
    {
      "inputs": [
        {
          "internalType": "uint256",
          "name": "tokenId",
          "type": "uint256"
        }
      ],
      "name": "getApproved",
      "outputs": [
        {
          "internalType": "address",
          "name": "",
          "type": "address"
        }
      ],
      "stateMutability": "view",
      "type": "function"
    },
    {
      "inputs": [],
      "name": "getTotalNFTsMintedSoFar",
      "outputs": [
        {
          "internalType": "uint256",
          "name": "",
          "type": "uint256"
        }
      ],
      "stateMutability": "view",
      "type": "function"
    },
    {
      "inputs": [
        {
          "internalType": "address",
          "name": "owner",
          "type": "address"
        },
        {
          "internalType": "address",
          "name": "operator",
          "type": "address"
        }
      ],
      "name": "isApprovedForAll",
      "outputs": [
        {
          "internalType": "bool",
          "name": "",
          "type": "bool"
        }
      ],
      "stateMutability": "view",
      "type": "function"
    },
    {
      "inputs": [],
      "name": "makeLegendNFT",
      "outputs": [],
      "stateMutability": "nonpayable",
      "type": "function"
    },
    {
      "inputs": [],
      "name": "name",
      "outputs": [
        {
          "internalType": "string",
          "name": "",
          "type": "string"
        }
      ],
      "stateMutability": "view",
      "type": "function"
    },
    {
      "inputs": [
        {
          "internalType": "uint256",
          "name": "tokenId",
          "type": "uint256"
        }
      ],
      "name": "ownerOf",
      "outputs": [
        {
          "internalType": "address",
          "name": "",
          "type": "address"
        }
      ],
      "stateMutability": "view",
      "type": "function"
    },
    {
      "inputs": [
        {
          "internalType": "uint256",
          "name": "tokenId",
          "type": "uint256"
        }
      ],
      "name": "pickRandomColor",
      "outputs": [
        {
          "internalType": "string",
          "name": "",
          "type": "string"
        }
      ],
      "stateMutability": "view",
      "type": "function"
    },
    {
      "inputs": [
        {
          "internalType": "uint256",
          "name": "tokenId",
          "type": "uint256"
        }
      ],
      "name": "pickRandomFirstWord",
      "outputs": [
        {
          "internalType": "string",
          "name": "",
          "type": "string"
        }
      ],
      "stateMutability": "view",
      "type": "function"
    },
    {
      "inputs": [
        {
          "internalType": "uint256",
          "name": "tokenId",
          "type": "uint256"
        }
      ],
      "name": "pickRandomSecondWord",
      "outputs": [
        {
          "internalType": "string",
          "name": "",
          "type": "string"
        }
      ],
      "stateMutability": "view",
      "type": "function"
    },
    {
      "inputs": [
        {
          "internalType": "uint256",
          "name": "tokenId",
          "type": "uint256"
        }
      ],
      "name": "pickRandomThirdWord",
      "outputs": [
        {
          "internalType": "string",
          "name": "",
          "type": "string"
        }
      ],
      "stateMutability": "view",
      "type": "function"
    },
    {
      "inputs": [
        {
          "internalType": "address",
          "name": "from",
          "type": "address"
        },
        {
          "internalType": "address",
          "name": "to",
          "type": "address"
        },
        {
          "internalType": "uint256",
          "name": "tokenId",
          "type": "uint256"
        }
      ],
      "name": "safeTransferFrom",
      "outputs": [],
      "stateMutability": "nonpayable",
      "type": "function"
    },
    {
      "inputs": [
        {
          "internalType": "address",
          "name": "from",
          "type": "address"
        },
        {
          "internalType": "address",
          "name": "to",
          "type": "address"
        },
        {
          "internalType": "uint256",
          "name": "tokenId",
          "type": "uint256"
        },
        {
          "internalType": "bytes",
          "name": "_data",
          "type": "bytes"
        }
      ],
      "name": "safeTransferFrom",
      "outputs": [],
      "stateMutability": "nonpayable",
      "type": "function"
    },
    {
      "inputs": [
        {
          "internalType": "address",
          "name": "operator",
          "type": "address"
        },
        {
          "internalType": "bool",
          "name": "approved",
          "type": "bool"
        }
      ],
      "name": "setApprovalForAll",
      "outputs": [],
      "stateMutability": "nonpayable",
      "type": "function"
    },
    {
      "inputs": [
        {
          "internalType": "bytes4",
          "name": "interfaceId",
          "type": "bytes4"
        }
      ],
      "name": "supportsInterface",
      "outputs": [
        {
          "internalType": "bool",
          "name": "",
          "type": "bool"
        }
      ],
      "stateMutability": "view",
      "type": "function"
    },
    {
      "inputs": [],
      "name": "symbol",
      "outputs": [
        {
          "internalType": "string",
          "name": "",
          "type": "string"
        }
      ],
      "stateMutability": "view",
      "type": "function"
    },
    {
      "inputs": [
        {
          "internalType": "uint256",
          "name": "tokenId",
          "type": "uint256"
        }
      ],
      "name": "tokenURI",
      "outputs": [
        {
          "internalType": "string",
          "name": "",
          "type": "string"
        }
      ],
      "stateMutability": "view",
      "type": "function"
    },
    {
      "inputs": [],
      "name": "totalSupply",
      "outputs": [
        {
          "internalType": "uint256",
          "name": "",
          "type": "uint256"
        }
      ],
      "stateMutability": "view",
      "type": "function"
    },
    {
      "inputs": [
        {
          "internalType": "address",
          "name": "from",
          "type": "address"
        },
        {
          "internalType": "address",
          "name": "to",
          "type": "address"
        },
        {
          "internalType": "uint256",
          "name": "tokenId",
          "type": "uint256"
        }
      ],
      "name": "transferFrom",
      "outputs": [],
      "stateMutability": "nonpayable",
      "type": "function"
    }
  ],
  "bytecode": "0x608060405260405180610100016040528060de815260200162004d5f60de9139600990805190602001906200003692919062000d0f565b5060405180608001604052806057815260200162004e3d60579139600a90805190602001906200006892919062000d0f565b506040518061014001604052806040518060400160405280600781526020017f456c6567616e740000000000000000000000000000000000000000000000000081525081526020016040518060400160405280600981526020017f457871756973697465000000000000000000000000000000000000000000000081525081526020016040518060400160405280600881526020017f476c6f72696f757300000000000000000000000000000000000000000000000081525081526020016040518060400160405280600981526020017f4a756e6f6573717565000000000000000000000000000000000000000000000081525081526020016040518060400160405280600b81526020017f4d61676e69666963656e7400000000000000000000000000000000000000000081525081526020016040518060400160405280600b81526020017f526573706c656e64656e7400000000000000000000000000000000000000000081525081526020016040518060400160405280600881526020017f53706c656e64696400000000000000000000000000000000000000000000000081525081526020016040518060400160405280600a81526020017f537461747565737175650000000000000000000000000000000000000000000081525081526020016040518060400160405280600781526020017f5375626c696d650000000000000000000000000000000000000000000000000081525081526020016040518060400160405280600681526020017f5375706572620000000000000000000000000000000000000000000000000000815250815250600b90600a620002d392919062000da0565b506040518061016001604052806040518060400160405280600681526020017f507974686f6e000000000000000000000000000000000000000000000000000081525081526020016040518060400160405280600a81526020017f4a6176617363726970740000000000000000000000000000000000000000000081525081526020016040518060400160405280600481526020017f4a6176610000000000000000000000000000000000000000000000000000000081525081526020016040518060400160405280600281526020017f432300000000000000000000000000000000000000000000000000000000000081525081526020016040518060400160405280600181526020017f430000000000000000000000000000000000000000000000000000000000000081525081526020016040518060400160405280600381526020017f432b2b000000000000000000000000000000000000000000000000000000000081525081526020016040518060400160405280600281526020017f476f00000000000000000000000000000000000000000000000000000000000081525081526020016040518060400160405280600481526020017f527573740000000000000000000000000000000000000000000000000000000081525081526020016040518060400160405280600181526020017f520000000000000000000000000000000000000000000000000000000000000081525081526020016040518060400160405280600581526020017f537769667400000000000000000000000000000000000000000000000000000081525081526020016040518060400160405280600381526020017f5048500000000000000000000000000000000000000000000000000000000000815250815250600c90600b6200057992919062000e07565b506040518061014001604052806040518060400160405280600481526020017f436f64650000000000000000000000000000000000000000000000000000000081525081526020016040518060400160405280600381526020017f47656d000000000000000000000000000000000000000000000000000000000081525081526020016040518060400160405280600481526020017f417274730000000000000000000000000000000000000000000000000000000081525081526020016040518060400160405280600481526020017f576f726b0000000000000000000000000000000000000000000000000000000081525081526020016040518060400160405280600c81526020017f4d61737465727374726f6b65000000000000000000000000000000000000000081525081526020016040518060400160405280600781526020017f50726f6772616d0000000000000000000000000000000000000000000000000081525081526020016040518060400160405280600281526020017f554900000000000000000000000000000000000000000000000000000000000081525081526020016040518060400160405280600b81526020017f4d6173746572706965636500000000000000000000000000000000000000000081525081526020016040518060400160405280600981526020017f53686f777069656365000000000000000000000000000000000000000000000081525081526020016040518060400160405280600881526020017f5374616e64617264000000000000000000000000000000000000000000000000815250815250600d90600a620007e492919062000da0565b50604051806101c001604052806040518060400160405280600781526020017f234244314535310000000000000000000000000000000000000000000000000081525081526020016040518060400160405280600781526020017f233030414245310000000000000000000000000000000000000000000000000081525081526020016040518060400160405280600781526020017f233136314636440000000000000000000000000000000000000000000000000081525081526020016040518060400160405280600781526020017f233744413241390000000000000000000000000000000000000000000000000081525081526020016040518060400160405280600781526020017f233030343538420000000000000000000000000000000000000000000000000081525081526020016040518060400160405280600781526020017f233144323232380000000000000000000000000000000000000000000000000081525081526020016040518060400160405280600781526020017f233035313632320000000000000000000000000000000000000000000000000081525081526020016040518060400160405280600781526020017f233433383934350000000000000000000000000000000000000000000000000081525081526020016040518060400160405280600781526020017f233543364535380000000000000000000000000000000000000000000000000081525081526020016040518060400160405280600781526020017f233138313831380000000000000000000000000000000000000000000000000081525081526020016040518060400160405280600781526020017f233243434343330000000000000000000000000000000000000000000000000081525081526020016040518060400160405280600781526020017f234641434433440000000000000000000000000000000000000000000000000081525081526020016040518060400160405280600781526020017f233536323643340000000000000000000000000000000000000000000000000081525081526020016040518060400160405280600781526020017f2345363035373600000000000000000000000000000000000000000000000000815250815250600e90600e62000b3b92919062000e6e565b5034801562000b4957600080fd5b506040518060400160405280600e81526020017f444556204c6567656e64204e46540000000000000000000000000000000000008152506040518060400160405280600381526020017f4445560000000000000000000000000000000000000000000000000000000000815250816000908051906020019062000bce92919062000d0f565b50806001908051906020019062000be792919062000d0f565b505050600a60088190555062000c3d6040518060400160405280601e81526020017f54686973206973206d79204e465420636f6e74726163742e2057686f6121000081525062000c4360201b620012111760201c565b6200108f565b62000ce38160405160240162000c5a919062000fa3565b6040516020818303038152906040527f41304fac000000000000000000000000000000000000000000000000000000007bffffffffffffffffffffffffffffffffffffffffffffffffffffffff19166020820180517bffffffffffffffffffffffffffffffffffffffffffffffffffffffff838183161783525050505062000ce660201b60201c565b50565b60008151905060006a636f6e736f6c652e6c6f679050602083016000808483855afa5050505050565b82805462000d1d9062001019565b90600052602060002090601f01602090048101928262000d41576000855562000d8d565b82601f1062000d5c57805160ff191683800117855562000d8d565b8280016001018555821562000d8d579182015b8281111562000d8c57825182559160200191906001019062000d6f565b5b50905062000d9c919062000ed5565b5090565b82805482825590600052602060002090810192821562000df4579160200282015b8281111562000df357825182908051906020019062000de292919062000d0f565b509160200191906001019062000dc1565b5b50905062000e03919062000ef4565b5090565b82805482825590600052602060002090810192821562000e5b579160200282015b8281111562000e5a57825182908051906020019062000e4992919062000d0f565b509160200191906001019062000e28565b5b50905062000e6a919062000ef4565b5090565b82805482825590600052602060002090810192821562000ec2579160200282015b8281111562000ec157825182908051906020019062000eb092919062000d0f565b509160200191906001019062000e8f565b5b50905062000ed1919062000ef4565b5090565b5b8082111562000ef057600081600090555060010162000ed6565b5090565b5b8082111562000f18576000818162000f0e919062000f1c565b5060010162000ef5565b5090565b50805462000f2a9062001019565b6000825580601f1062000f3e575062000f5f565b601f01602090049060005260206000209081019062000f5e919062000ed5565b5b50565b600062000f6f8262000fc7565b62000f7b818562000fd2565b935062000f8d81856020860162000fe3565b62000f98816200107e565b840191505092915050565b6000602082019050818103600083015262000fbf818462000f62565b905092915050565b600081519050919050565b600082825260208201905092915050565b60005b838110156200100357808201518184015260208101905062000fe6565b8381111562001013576000848401525b50505050565b600060028204905060018216806200103257607f821691505b602082108114156200104957620010486200104f565b5b50919050565b7f4e487b7100000000000000000000000000000000000000000000000000000000600052602260045260246000fd5b6000601f19601f8301169050919050565b613cc0806200109f6000396000f3fe608060405234801561001057600080fd5b506004361061012c5760003560e01c80636352211e116100ad578063b187301f11610071578063b187301f14610343578063b88d4fde14610373578063c575757a1461038f578063c87b56dd146103bf578063e985e9c5146103ef5761012c565b80636352211e1461029f5780636cb6b69c146102cf57806370a08231146102d957806395d89b4114610309578063a22cb465146103275761012c565b806318160ddd116100f457806318160ddd146101e957806323b872dd146102075780632de38d681461022357806342842e0e14610253578063514dc8c61461026f5761012c565b806301ffc9a714610131578063060475901461016157806306fdde031461017f578063081812fc1461019d578063095ea7b3146101cd575b600080fd5b61014b60048036038101906101469190612678565b61041f565b6040516101589190612e3d565b60405180910390f35b610169610501565b60405161017691906130d8565b60405180910390f35b61018761051e565b6040516101949190612e58565b60405180910390f35b6101b760048036038101906101b291906126ca565b6105b0565b6040516101c49190612dad565b60405180910390f35b6101e760048036038101906101e2919061263c565b610635565b005b6101f161074d565b6040516101fe91906130d8565b60405180910390f35b610221600480360381019061021c9190612536565b610753565b005b61023d600480360381019061023891906126ca565b6107b3565b60405161024a9190612e58565b60405180910390f35b61026d60048036038101906102689190612536565b6108d1565b005b610289600480360381019061028491906126ca565b6108f1565b6040516102969190612e58565b60405180910390f35b6102b960048036038101906102b491906126ca565b610a0f565b6040516102c69190612dad565b60405180910390f35b6102d7610ac1565b005b6102f360048036038101906102ee91906124d1565b610c2d565b60405161030091906130d8565b60405180910390f35b610311610ce5565b60405161031e9190612e58565b60405180910390f35b610341600480360381019061033c9190612600565b610d77565b005b61035d600480360381019061035891906126ca565b610d8d565b60405161036a9190612e58565b60405180910390f35b61038d60048036038101906103889190612585565b610eab565b005b6103a960048036038101906103a491906126ca565b610f0d565b6040516103b69190612e58565b60405180910390f35b6103d960048036038101906103d491906126ca565b61102b565b6040516103e69190612e58565b60405180910390f35b610409600480360381019061040491906124fa565b61117d565b6040516104169190612e3d565b60405180910390f35b60007f80ac58cd000000000000000000000000000000000000000000000000000000007bffffffffffffffffffffffffffffffffffffffffffffffffffffffff1916827bffffffffffffffffffffffffffffffffffffffffffffffffffffffff191614806104ea57507f5b5e139f000000000000000000000000000000000000000000000000000000007bffffffffffffffffffffffffffffffffffffffffffffffffffffffff1916827bffffffffffffffffffffffffffffffffffffffffffffffffffffffff1916145b806104fa57506104f9826112aa565b5b9050919050565b6000600161050f6007611314565b6105199190613282565b905090565b60606000805461052d9061336c565b80601f01602080910402602001604051908101604052809291908181526020018280546105599061336c565b80156105a65780601f1061057b576101008083540402835291602001916105a6565b820191906000526020600020905b81548152906001019060200180831161058957829003601f168201915b5050505050905090565b60006105bb82611322565b6105fa576040517f08c379a00000000000000000000000000000000000000000000000000000000081526004016105f190613038565b60405180910390fd5b6004600083815260200190815260200160002060009054906101000a900473ffffffffffffffffffffffffffffffffffffffff169050919050565b600061064082610a0f565b90508073ffffffffffffffffffffffffffffffffffffffff168373ffffffffffffffffffffffffffffffffffffffff1614156106b1576040517f08c379a00000000000000000000000000000000000000000000000000000000081526004016106a890613098565b60405180910390fd5b8073ffffffffffffffffffffffffffffffffffffffff166106d061138e565b73ffffffffffffffffffffffffffffffffffffffff1614806106ff57506106fe816106f961138e565b61117d565b5b61073e576040517f08c379a000000000000000000000000000000000000000000000000000000000815260040161073590612f58565b60405180910390fd5b6107488383611396565b505050565b60085481565b61076461075e61138e565b8261144f565b6107a3576040517f08c379a000000000000000000000000000000000000000000000000000000000815260040161079a906130b8565b60405180910390fd5b6107ae83838361152d565b505050565b606060006107e76107c384611789565b6040516020016107d39190612d47565b604051602081830303815290604052611936565b9050600b80549050816107fa9190613418565b9050600b8181548110610836577f4e487b7100000000000000000000000000000000000000000000000000000000600052603260045260246000fd5b90600052602060002001805461084b9061336c565b80601f01602080910402602001604051908101604052809291908181526020018280546108779061336c565b80156108c45780601f10610899576101008083540402835291602001916108c4565b820191906000526020600020905b8154815290600101906020018083116108a757829003601f168201915b5050505050915050919050565b6108ec83838360405180602001604052806000815250610eab565b505050565b6060600061092561090184611789565b6040516020016109119190612d8b565b604051602081830303815290604052611936565b9050600e80549050816109389190613418565b9050600e8181548110610974577f4e487b7100000000000000000000000000000000000000000000000000000000600052603260045260246000fd5b9060005260206000200180546109899061336c565b80601f01602080910402602001604051908101604052809291908181526020018280546109b59061336c565b8015610a025780601f106109d757610100808354040283529160200191610a02565b820191906000526020600020905b8154815290600101906020018083116109e557829003601f168201915b5050505050915050919050565b6000806002600084815260200190815260200160002060009054906101000a900473ffffffffffffffffffffffffffffffffffffffff169050600073ffffffffffffffffffffffffffffffffffffffff168173ffffffffffffffffffffffffffffffffffffffff161415610ab8576040517f08c379a0000000000000000000000000000000000000000000000000000000008152600401610aaf90612f98565b60405180910390fd5b80915050919050565b6000610acd6007611314565b90506008548110610b13576040517f08c379a0000000000000000000000000000000000000000000000000000000008152600401610b0a90612ff8565b60405180910390fd5b6000610b1e826107b3565b90506000610b2b83610d8d565b90506000610b3884610f0d565b90506000610b45856108f1565b90506000848484604051602001610b5e93929190612c2e565b60405160208183030381529060405290506000600983600a84604051602001610b8a9493929190612c75565b60405160208183030381529060405290506000610ba78383611969565b9050610bb333896119d0565b610bbd88826119ee565b610bc76007611a62565b610bea604051806060016040528060258152602001613c26602591398933611a78565b7f7306d6c01e7a3353e6a3bbe61f959b7e8de3af644e710b3b82de5ecc2090229e3389604051610c1b929190612e14565b60405180910390a15050505050505050565b60008073ffffffffffffffffffffffffffffffffffffffff168273ffffffffffffffffffffffffffffffffffffffff161415610c9e576040517f08c379a0000000000000000000000000000000000000000000000000000000008152600401610c9590612f78565b60405180910390fd5b600360008373ffffffffffffffffffffffffffffffffffffffff1673ffffffffffffffffffffffffffffffffffffffff168152602001908152602001600020549050919050565b606060018054610cf49061336c565b80601f0160208091040260200160405190810160405280929190818152602001828054610d209061336c565b8015610d6d5780601f10610d4257610100808354040283529160200191610d6d565b820191906000526020600020905b815481529060010190602001808311610d5057829003601f168201915b5050505050905090565b610d89610d8261138e565b8383611b17565b5050565b60606000610dc1610d9d84611789565b604051602001610dad9190612ce0565b604051602081830303815290604052611936565b9050600c8054905081610dd49190613418565b9050600c8181548110610e10577f4e487b7100000000000000000000000000000000000000000000000000000000600052603260045260246000fd5b906000526020600020018054610e259061336c565b80601f0160208091040260200160405190810160405280929190818152602001828054610e519061336c565b8015610e9e5780601f10610e7357610100808354040283529160200191610e9e565b820191906000526020600020905b815481529060010190602001808311610e8157829003601f168201915b5050505050915050919050565b610ebc610eb661138e565b8361144f565b610efb576040517f08c379a0000000000000000000000000000000000000000000000000000000008152600401610ef2906130b8565b60405180910390fd5b610f0784848484611c84565b50505050565b60606000610f41610f1d84611789565b604051602001610f2d9190612cbe565b604051602081830303815290604052611936565b9050600d8054905081610f549190613418565b9050600d8181548110610f90577f4e487b7100000000000000000000000000000000000000000000000000000000600052603260045260246000fd5b906000526020600020018054610fa59061336c565b80601f0160208091040260200160405190810160405280929190818152602001828054610fd19061336c565b801561101e5780601f10610ff35761010080835404028352916020019161101e565b820191906000526020600020905b81548152906001019060200180831161100157829003601f168201915b5050505050915050919050565b606061103682611322565b611075576040517f08c379a000000000000000000000000000000000000000000000000000000000815260040161106c90613018565b60405180910390fd5b60006006600084815260200190815260200160002080546110959061336c565b80601f01602080910402602001604051908101604052809291908181526020018280546110c19061336c565b801561110e5780601f106110e35761010080835404028352916020019161110e565b820191906000526020600020905b8154815290600101906020018083116110f157829003601f168201915b50505050509050600061111f611ce0565b9050600081511415611135578192505050611178565b60008251111561116a578082604051602001611152929190612c0a565b60405160208183030381529060405292505050611178565b61117384611cf7565b925050505b919050565b6000600560008473ffffffffffffffffffffffffffffffffffffffff1673ffffffffffffffffffffffffffffffffffffffff16815260200190815260200160002060008373ffffffffffffffffffffffffffffffffffffffff1673ffffffffffffffffffffffffffffffffffffffff16815260200190815260200160002060009054906101000a900460ff16905092915050565b6112a7816040516024016112259190612e58565b6040516020818303038152906040527f41304fac000000000000000000000000000000000000000000000000000000007bffffffffffffffffffffffffffffffffffffffffffffffffffffffff19166020820180517bffffffffffffffffffffffffffffffffffffffffffffffffffffffff8381831617835250505050611d9e565b50565b60007f01ffc9a7000000000000000000000000000000000000000000000000000000007bffffffffffffffffffffffffffffffffffffffffffffffffffffffff1916827bffffffffffffffffffffffffffffffffffffffffffffffffffffffff1916149050919050565b600081600001549050919050565b60008073ffffffffffffffffffffffffffffffffffffffff166002600084815260200190815260200160002060009054906101000a900473ffffffffffffffffffffffffffffffffffffffff1673ffffffffffffffffffffffffffffffffffffffff1614159050919050565b600033905090565b816004600083815260200190815260200160002060006101000a81548173ffffffffffffffffffffffffffffffffffffffff021916908373ffffffffffffffffffffffffffffffffffffffff160217905550808273ffffffffffffffffffffffffffffffffffffffff1661140983610a0f565b73ffffffffffffffffffffffffffffffffffffffff167f8c5be1e5ebec7d5bd14f71427d1e84f3dd0314c0f7b2291e5b200ac8c7c3b92560405160405180910390a45050565b600061145a82611322565b611499576040517f08c379a000000000000000000000000000000000000000000000000000000000815260040161149090612f38565b60405180910390fd5b60006114a483610a0f565b90508073ffffffffffffffffffffffffffffffffffffffff168473ffffffffffffffffffffffffffffffffffffffff16148061151357508373ffffffffffffffffffffffffffffffffffffffff166114fb846105b0565b73ffffffffffffffffffffffffffffffffffffffff16145b806115245750611523818561117d565b5b91505092915050565b8273ffffffffffffffffffffffffffffffffffffffff1661154d82610a0f565b73ffffffffffffffffffffffffffffffffffffffff16146115a3576040517f08c379a000000000000000000000000000000000000000000000000000000000815260040161159a90613058565b60405180910390fd5b600073ffffffffffffffffffffffffffffffffffffffff168273ffffffffffffffffffffffffffffffffffffffff161415611613576040517f08c379a000000000000000000000000000000000000000000000000000000000815260040161160a90612ef8565b60405180910390fd5b61161e838383611dc7565b611629600082611396565b6001600360008573ffffffffffffffffffffffffffffffffffffffff1673ffffffffffffffffffffffffffffffffffffffff16815260200190815260200160002060008282546116799190613282565b925050819055506001600360008473ffffffffffffffffffffffffffffffffffffffff1673ffffffffffffffffffffffffffffffffffffffff16815260200190815260200160002060008282546116d091906131a1565b92505081905550816002600083815260200190815260200160002060006101000a81548173ffffffffffffffffffffffffffffffffffffffff021916908373ffffffffffffffffffffffffffffffffffffffff160217905550808273ffffffffffffffffffffffffffffffffffffffff168473ffffffffffffffffffffffffffffffffffffffff167fddf252ad1be2c89b69c2b068fc378daa952ba7f163c4a11628f55a4df523b3ef60405160405180910390a4505050565b606060008214156117d1576040518060400160405280600181526020017f30000000000000000000000000000000000000000000000000000000000000008152509050611931565b600082905060005b600082146118035780806117ec906133cf565b915050600a826117fc91906131f7565b91506117d9565b60008167ffffffffffffffff811115611845577f4e487b7100000000000000000000000000000000000000000000000000000000600052604160045260246000fd5b6040519080825280601f01601f1916602001820160405280156118775781602001600182028036833780820191505090505b5090505b6000851461192a576001826118909190613282565b9150600a8561189f9190613418565b60306118ab91906131a1565b60f81b8183815181106118e7577f4e487b7100000000000000000000000000000000000000000000000000000000600052603260045260246000fd5b60200101907effffffffffffffffffffffffffffffffffffffffffffffffffffffffffffff1916908160001a905350600a8561192391906131f7565b945061187b565b8093505050505b919050565b6000816040516020016119499190612bf3565b6040516020818303038152906040528051906020012060001c9050919050565b6060600061199f8461197a85611dcc565b60405160200161198b929190612d02565b604051602081830303815290604052611dcc565b90506000816040516020016119b49190612d69565b6040516020818303038152906040529050809250505092915050565b6119ea828260405180602001604052806000815250611f8a565b5050565b6119f782611322565b611a36576040517f08c379a0000000000000000000000000000000000000000000000000000000008152600401611a2d90612fb8565b60405180910390fd5b80600660008481526020019081526020016000209080519060200190611a5d92919061235d565b505050565b6001816000016000828254019250508190555050565b611b12838383604051602401611a9093929190612e7a565b6040516020818303038152906040527fe3849f79000000000000000000000000000000000000000000000000000000007bffffffffffffffffffffffffffffffffffffffffffffffffffffffff19166020820180517bffffffffffffffffffffffffffffffffffffffffffffffffffffffff8381831617835250505050611d9e565b505050565b8173ffffffffffffffffffffffffffffffffffffffff168373ffffffffffffffffffffffffffffffffffffffff161415611b86576040517f08c379a0000000000000000000000000000000000000000000000000000000008152600401611b7d90612f18565b60405180910390fd5b80600560008573ffffffffffffffffffffffffffffffffffffffff1673ffffffffffffffffffffffffffffffffffffffff16815260200190815260200160002060008473ffffffffffffffffffffffffffffffffffffffff1673ffffffffffffffffffffffffffffffffffffffff16815260200190815260200160002060006101000a81548160ff0219169083151502179055508173ffffffffffffffffffffffffffffffffffffffff168373ffffffffffffffffffffffffffffffffffffffff167f17307eab39ab6107e8899845ad3d59bd9653f200f220920489ca2b5937696c3183604051611c779190612e3d565b60405180910390a3505050565b611c8f84848461152d565b611c9b84848484611fe5565b611cda576040517f08c379a0000000000000000000000000000000000000000000000000000000008152600401611cd190612eb8565b60405180910390fd5b50505050565b606060405180602001604052806000815250905090565b6060611d0282611322565b611d41576040517f08c379a0000000000000000000000000000000000000000000000000000000008152600401611d3890613078565b60405180910390fd5b6000611d4b611ce0565b90506000815111611d6b5760405180602001604052806000815250611d96565b80611d7584611789565b604051602001611d86929190612c0a565b6040516020818303038152906040525b915050919050565b60008151905060006a636f6e736f6c652e6c6f679050602083016000808483855afa5050505050565b505050565b60606000825190506000811415611df55760405180602001604052806000815250915050611f85565b60006003600283611e0691906131a1565b611e1091906131f7565b6004611e1c9190613228565b90506000602082611e2d91906131a1565b67ffffffffffffffff811115611e6c577f4e487b7100000000000000000000000000000000000000000000000000000000600052604160045260246000fd5b6040519080825280601f01601f191660200182016040528015611e9e5781602001600182028036833780820191505090505b5090506000604051806060016040528060408152602001613c4b604091399050600181016020830160005b86811015611f425760038101905062ffffff818a015116603f8160121c168401518060081b905060ff603f83600c1c1686015116810190508060081b905060ff603f8360061c1686015116810190508060081b905060ff603f831686015116810190508060e01b90508084526004840193505050611ec9565b506003860660018114611f5c5760028114611f6c57611f77565b613d3d60f01b6002830352611f77565b603d60f81b60018303525b508484525050819450505050505b919050565b611f94838361217c565b611fa16000848484611fe5565b611fe0576040517f08c379a0000000000000000000000000000000000000000000000000000000008152600401611fd790612eb8565b60405180910390fd5b505050565b60006120068473ffffffffffffffffffffffffffffffffffffffff1661234a565b1561216f578373ffffffffffffffffffffffffffffffffffffffff1663150b7a0261202f61138e565b8786866040518563ffffffff1660e01b81526004016120519493929190612dc8565b602060405180830381600087803b15801561206b57600080fd5b505af192505050801561209c57506040513d601f19601f8201168201806040525081019061209991906126a1565b60015b61211f573d80600081146120cc576040519150601f19603f3d011682016040523d82523d6000602084013e6120d1565b606091505b50600081511415612117576040517f08c379a000000000000000000000000000000000000000000000000000000000815260040161210e90612eb8565b60405180910390fd5b805181602001fd5b63150b7a0260e01b7bffffffffffffffffffffffffffffffffffffffffffffffffffffffff1916817bffffffffffffffffffffffffffffffffffffffffffffffffffffffff191614915050612174565b600190505b949350505050565b600073ffffffffffffffffffffffffffffffffffffffff168273ffffffffffffffffffffffffffffffffffffffff1614156121ec576040517f08c379a00000000000000000000000000000000000000000000000000000000081526004016121e390612fd8565b60405180910390fd5b6121f581611322565b15612235576040517f08c379a000000000000000000000000000000000000000000000000000000000815260040161222c90612ed8565b60405180910390fd5b61224160008383611dc7565b6001600360008473ffffffffffffffffffffffffffffffffffffffff1673ffffffffffffffffffffffffffffffffffffffff168152602001908152602001600020600082825461229191906131a1565b92505081905550816002600083815260200190815260200160002060006101000a81548173ffffffffffffffffffffffffffffffffffffffff021916908373ffffffffffffffffffffffffffffffffffffffff160217905550808273ffffffffffffffffffffffffffffffffffffffff16600073ffffffffffffffffffffffffffffffffffffffff167fddf252ad1be2c89b69c2b068fc378daa952ba7f163c4a11628f55a4df523b3ef60405160405180910390a45050565b600080823b905060008111915050919050565b8280546123699061336c565b90600052602060002090601f01602090048101928261238b57600085556123d2565b82601f106123a457805160ff19168380011785556123d2565b828001600101855582156123d2579182015b828111156123d15782518255916020019190600101906123b6565b5b5090506123df91906123e3565b5090565b5b808211156123fc5760008160009055506001016123e4565b5090565b600061241361240e84613118565b6130f3565b90508281526020810184848401111561242b57600080fd5b61243684828561332a565b509392505050565b60008135905061244d81613bc9565b92915050565b60008135905061246281613be0565b92915050565b60008135905061247781613bf7565b92915050565b60008151905061248c81613bf7565b92915050565b600082601f8301126124a357600080fd5b81356124b3848260208601612400565b91505092915050565b6000813590506124cb81613c0e565b92915050565b6000602082840312156124e357600080fd5b60006124f18482850161243e565b91505092915050565b6000806040838503121561250d57600080fd5b600061251b8582860161243e565b925050602061252c8582860161243e565b9150509250929050565b60008060006060848603121561254b57600080fd5b60006125598682870161243e565b935050602061256a8682870161243e565b925050604061257b868287016124bc565b9150509250925092565b6000806000806080858703121561259b57600080fd5b60006125a98782880161243e565b94505060206125ba8782880161243e565b93505060406125cb878288016124bc565b925050606085013567ffffffffffffffff8111156125e857600080fd5b6125f487828801612492565b91505092959194509250565b6000806040838503121561261357600080fd5b60006126218582860161243e565b925050602061263285828601612453565b9150509250929050565b6000806040838503121561264f57600080fd5b600061265d8582860161243e565b925050602061266e858286016124bc565b9150509250929050565b60006020828403121561268a57600080fd5b600061269884828501612468565b91505092915050565b6000602082840312156126b357600080fd5b60006126c18482850161247d565b91505092915050565b6000602082840312156126dc57600080fd5b60006126ea848285016124bc565b91505092915050565b6126fc816132b6565b82525050565b61270b816132c8565b82525050565b600061271c8261315e565b6127268185613174565b9350612736818560208601613339565b61273f81613505565b840191505092915050565b600061275582613169565b61275f8185613185565b935061276f818560208601613339565b61277881613505565b840191505092915050565b600061278e82613169565b6127988185613196565b93506127a8818560208601613339565b80840191505092915050565b600081546127c18161336c565b6127cb8186613196565b945060018216600081146127e657600181146127f75761282a565b60ff1983168652818601935061282a565b61280085613149565b60005b8381101561282257815481890152600182019150602081019050612803565b838801955050505b50505092915050565b6000612840603283613185565b915061284b82613516565b604082019050919050565b6000612863601c83613185565b915061286e82613565565b602082019050919050565b6000612886600a83613196565b91506128918261358e565b600a82019050919050565b60006128a9602483613185565b91506128b4826135b7565b604082019050919050565b60006128cc601983613185565b91506128d782613606565b602082019050919050565b60006128ef600b83613196565b91506128fa8261362f565b600b82019050919050565b6000612912602c83613185565b915061291d82613658565b604082019050919050565b6000612935600d83613196565b9150612940826136a7565b600d82019050919050565b6000612958600183613196565b9150612963826136d0565b600182019050919050565b600061297b603883613185565b9150612986826136f9565b604082019050919050565b600061299e602a83613185565b91506129a982613748565b604082019050919050565b60006129c1602983613185565b91506129cc82613797565b604082019050919050565b60006129e4602e83613185565b91506129ef826137e6565b604082019050919050565b6000612a07600283613196565b9150612a1282613835565b600282019050919050565b6000612a2a602083613185565b9150612a358261385e565b602082019050919050565b6000612a4d601e83613185565b9150612a5882613887565b602082019050919050565b6000612a70603183613185565b9150612a7b826138b0565b604082019050919050565b6000612a93602c83613185565b9150612a9e826138ff565b604082019050919050565b6000612ab6602983613185565b9150612ac18261394e565b604082019050919050565b6000612ad9602f83613185565b9150612ae48261399d565b604082019050919050565b6000612afc600a83613196565b9150612b07826139ec565b600a82019050919050565b6000612b1f602183613185565b9150612b2a82613a15565b604082019050919050565b6000612b42600a83613196565b9150612b4d82613a64565b600a82019050919050565b6000612b65601d83613196565b9150612b7082613a8d565b601d82019050919050565b6000612b88603183613185565b9150612b9382613ab6565b604082019050919050565b6000612bab600583613196565b9150612bb682613b05565b600582019050919050565b6000612bce606b83613196565b9150612bd982613b2e565b606b82019050919050565b612bed81613320565b82525050565b6000612bff8284612783565b915081905092915050565b6000612c168285612783565b9150612c228284612783565b91508190509392505050565b6000612c3a8286612783565b9150612c458261294b565b9150612c518285612783565b9150612c5c8261294b565b9150612c688284612783565b9150819050949350505050565b6000612c8182876127b4565b9150612c8d8286612783565b9150612c9982856127b4565b9150612ca58284612783565b9150612cb082612928565b915081905095945050505050565b6000612cc982612879565b9150612cd58284612783565b915081905092915050565b6000612ceb826128e2565b9150612cf78284612783565b915081905092915050565b6000612d0d82612aef565b9150612d198285612783565b9150612d2482612bc1565b9150612d308284612783565b9150612d3b826129fa565b91508190509392505050565b6000612d5282612b35565b9150612d5e8284612783565b915081905092915050565b6000612d7482612b58565b9150612d808284612783565b915081905092915050565b6000612d9682612b9e565b9150612da28284612783565b915081905092915050565b6000602082019050612dc260008301846126f3565b92915050565b6000608082019050612ddd60008301876126f3565b612dea60208301866126f3565b612df76040830185612be4565b8181036060830152612e098184612711565b905095945050505050565b6000604082019050612e2960008301856126f3565b612e366020830184612be4565b9392505050565b6000602082019050612e526000830184612702565b92915050565b60006020820190508181036000830152612e72818461274a565b905092915050565b60006060820190508181036000830152612e94818661274a565b9050612ea36020830185612be4565b612eb060408301846126f3565b949350505050565b60006020820190508181036000830152612ed181612833565b9050919050565b60006020820190508181036000830152612ef181612856565b9050919050565b60006020820190508181036000830152612f118161289c565b9050919050565b60006020820190508181036000830152612f31816128bf565b9050919050565b60006020820190508181036000830152612f5181612905565b9050919050565b60006020820190508181036000830152612f718161296e565b9050919050565b60006020820190508181036000830152612f9181612991565b9050919050565b60006020820190508181036000830152612fb1816129b4565b9050919050565b60006020820190508181036000830152612fd1816129d7565b9050919050565b60006020820190508181036000830152612ff181612a1d565b9050919050565b6000602082019050818103600083015261301181612a40565b9050919050565b6000602082019050818103600083015261303181612a63565b9050919050565b6000602082019050818103600083015261305181612a86565b9050919050565b6000602082019050818103600083015261307181612aa9565b9050919050565b6000602082019050818103600083015261309181612acc565b9050919050565b600060208201905081810360008301526130b181612b12565b9050919050565b600060208201905081810360008301526130d181612b7b565b9050919050565b60006020820190506130ed6000830184612be4565b92915050565b60006130fd61310e565b9050613109828261339e565b919050565b6000604051905090565b600067ffffffffffffffff821115613133576131326134d6565b5b61313c82613505565b9050602081019050919050565b60008190508160005260206000209050919050565b600081519050919050565b600081519050919050565b600082825260208201905092915050565b600082825260208201905092915050565b600081905092915050565b60006131ac82613320565b91506131b783613320565b9250827fffffffffffffffffffffffffffffffffffffffffffffffffffffffffffffffff038211156131ec576131eb613449565b5b828201905092915050565b600061320282613320565b915061320d83613320565b92508261321d5761321c613478565b5b828204905092915050565b600061323382613320565b915061323e83613320565b9250817fffffffffffffffffffffffffffffffffffffffffffffffffffffffffffffffff048311821515161561327757613276613449565b5b828202905092915050565b600061328d82613320565b915061329883613320565b9250828210156132ab576132aa613449565b5b828203905092915050565b60006132c182613300565b9050919050565b60008115159050919050565b60007fffffffff0000000000000000000000000000000000000000000000000000000082169050919050565b600073ffffffffffffffffffffffffffffffffffffffff82169050919050565b6000819050919050565b82818337600083830152505050565b60005b8381101561335757808201518184015260208101905061333c565b83811115613366576000848401525b50505050565b6000600282049050600182168061338457607f821691505b60208210811415613398576133976134a7565b5b50919050565b6133a782613505565b810181811067ffffffffffffffff821117156133c6576133c56134d6565b5b80604052505050565b60006133da82613320565b91507fffffffffffffffffffffffffffffffffffffffffffffffffffffffffffffffff82141561340d5761340c613449565b5b600182019050919050565b600061342382613320565b915061342e83613320565b92508261343e5761343d613478565b5b828206905092915050565b7f4e487b7100000000000000000000000000000000000000000000000000000000600052601160045260246000fd5b7f4e487b7100000000000000000000000000000000000000000000000000000000600052601260045260246000fd5b7f4e487b7100000000000000000000000000000000000000000000000000000000600052602260045260246000fd5b7f4e487b7100000000000000000000000000000000000000000000000000000000600052604160045260246000fd5b6000601f19601f8301169050919050565b7f4552433732313a207472616e7366657220746f206e6f6e20455243373231526560008201527f63656976657220696d706c656d656e7465720000000000000000000000000000602082015250565b7f4552433732313a20746f6b656e20616c7265616479206d696e74656400000000600082015250565b7f54484952445f574f524400000000000000000000000000000000000000000000600082015250565b7f4552433732313a207472616e7366657220746f20746865207a65726f2061646460008201527f7265737300000000000000000000000000000000000000000000000000000000602082015250565b7f4552433732313a20617070726f766520746f2063616c6c657200000000000000600082015250565b7f5345434f4e445f574f5244000000000000000000000000000000000000000000600082015250565b7f4552433732313a206f70657261746f7220717565727920666f72206e6f6e657860008201527f697374656e7420746f6b656e0000000000000000000000000000000000000000602082015250565b7f3c2f746578743e3c2f7376673e00000000000000000000000000000000000000600082015250565b7f2000000000000000000000000000000000000000000000000000000000000000600082015250565b7f4552433732313a20617070726f76652063616c6c6572206973206e6f74206f7760008201527f6e6572206e6f7220617070726f76656420666f7220616c6c0000000000000000602082015250565b7f4552433732313a2062616c616e636520717565727920666f7220746865207a6560008201527f726f206164647265737300000000000000000000000000000000000000000000602082015250565b7f4552433732313a206f776e657220717565727920666f72206e6f6e657869737460008201527f656e7420746f6b656e0000000000000000000000000000000000000000000000602082015250565b7f45524337323155524953746f726167653a2055524920736574206f66206e6f6e60008201527f6578697374656e7420746f6b656e000000000000000000000000000000000000602082015250565b7f227d000000000000000000000000000000000000000000000000000000000000600082015250565b7f4552433732313a206d696e7420746f20746865207a65726f2061646472657373600082015250565b7f546f74616c20737570706c7920686173206265656e2072656163686564210000600082015250565b7f45524337323155524953746f726167653a2055524920717565727920666f722060008201527f6e6f6e6578697374656e7420746f6b656e000000000000000000000000000000602082015250565b7f4552433732313a20617070726f76656420717565727920666f72206e6f6e657860008201527f697374656e7420746f6b656e0000000000000000000000000000000000000000602082015250565b7f4552433732313a207472616e73666572206f6620746f6b656e2074686174206960008201527f73206e6f74206f776e0000000000000000000000000000000000000000000000602082015250565b7f4552433732314d657461646174613a2055524920717565727920666f72206e6f60008201527f6e6578697374656e7420746f6b656e0000000000000000000000000000000000602082015250565b7f7b226e616d65223a202200000000000000000000000000000000000000000000600082015250565b7f4552433732313a20617070726f76616c20746f2063757272656e74206f776e6560008201527f7200000000000000000000000000000000000000000000000000000000000000602082015250565b7f46495253545f574f524400000000000000000000000000000000000000000000600082015250565b7f646174613a6170706c69636174696f6e2f6a736f6e3b6261736536342c000000600082015250565b7f4552433732313a207472616e736665722063616c6c6572206973206e6f74206f60008201527f776e6572206e6f7220617070726f766564000000000000000000000000000000602082015250565b7f434f4c4f52000000000000000000000000000000000000000000000000000000600082015250565b7f222c20226465736372697074696f6e223a20224120686967686c79206163636c60008201527f61696d656420636f6c6c656374696f6e20666f7220616c6c20646576656c6f7060208201527f6572732e222c2022696d616765223a2022646174613a696d6167652f7376672b60408201527f786d6c3b6261736536342c000000000000000000000000000000000000000000606082015250565b613bd2816132b6565b8114613bdd57600080fd5b50565b613be9816132c8565b8114613bf457600080fd5b50565b613c00816132d4565b8114613c0b57600080fd5b50565b613c1781613320565b8114613c2257600080fd5b5056fe416e204e465420772f20494420257320686173206265656e206d696e74656420746f2025734142434445464748494a4b4c4d4e4f505152535455565758595a6162636465666768696a6b6c6d6e6f707172737475767778797a303132333435363738392b2fa2646970667358221220fb9f23368d889d105d2445ee85b8613a8cf14215c81f5c1c90a1b8ad0dd3a2ca64736f6c634300080400333c73766720786d6c6e733d27687474703a2f2f7777772e77332e6f72672f323030302f73766727207072657365727665417370656374526174696f3d27784d696e594d696e206d656574272076696577426f783d273020302033353020333530273e3c7374796c653e2e62617365207b2066696c6c3a20234645464546453b20666f6e742d66616d696c793a204c6561677565205370617274616e3b20666f6e742d73697a653a20323470783b207d3c2f7374796c653e3c726563742077696474683d273130302527206865696768743d2731303025272066696c6c3d2727202f3e3c7465787420783d273530252720793d273530252720636c6173733d27626173652720646f6d696e616e742d626173656c696e653d276d6964646c652720746578742d616e63686f723d276d6964646c65273e",
  "linkReferences": {},
  "deployedLinkReferences": {}
}